{
  "contractName": "LogTestContract",
  "abi": [
    {
      "inputs": [
        {
          "internalType": "uint256",
          "name": "eventId",
          "type": "uint256"
        },
        {
          "internalType": "string",
          "name": "message",
          "type": "string"
        },
        {
          "internalType": "string",
          "name": "timeCreated",
          "type": "string"
        },
        {
          "internalType": "string",
          "name": "levelDisplayName",
          "type": "string"
        },
        {
          "internalType": "string",
          "name": "providerName",
          "type": "string"
        }
      ],
      "name": "saglabatZurnalu",
      "outputs": [],
      "stateMutability": "nonpayable",
      "type": "function"
    },
    {
      "inputs": [
        {
          "internalType": "uint256",
          "name": "eventId",
          "type": "uint256"
        }
      ],
      "name": "mekletPecId",
      "outputs": [
        {
          "components": [
            {
              "internalType": "uint256",
              "name": "eventId",
              "type": "uint256"
            },
            {
              "internalType": "string",
              "name": "message",
              "type": "string"
            },
            {
              "internalType": "string",
              "name": "timeCreated",
              "type": "string"
            },
            {
              "internalType": "string",
              "name": "levelDisplayName",
              "type": "string"
            },
            {
              "internalType": "string",
              "name": "providerName",
              "type": "string"
            }
          ],
          "internalType": "struct LogTestContract.Log[]",
          "name": "",
          "type": "tuple[]"
        }
      ],
      "stateMutability": "view",
      "type": "function",
      "constant": true
    }
  ],
  "bytecode": "0x608060405234801561001057600080fd5b50610bde806100206000396000f3fe608060405234801561001057600080fd5b50600436106100365760003560e01c80635cd742461461003b5780637a3a2b421461006b575b600080fd5b6100556004803603810190610050919061063e565b610087565b6040516100629190610860565b60405180910390f35b610085600480360381019061008091906109b7565b610449565b005b60606000805b6000805490508110156100e85783600082815481106100af576100ae610aa2565b5b906000526020600020906005020160000154036100d55781806100d190610b00565b9250505b80806100e090610b00565b91505061008d565b5060008167ffffffffffffffff8111156101055761010461088c565b5b60405190808252806020026020018201604052801561013e57816020015b61012b610522565b8152602001906001900390816101235790505b5090506000805b60008054905081101561043d57856000828154811061016757610166610aa2565b5b9060005260206000209060050201600001540361042a576000818154811061019257610191610aa2565b5b90600052602060002090600502016040518060a0016040529081600082015481526020016001820180546101c590610b77565b80601f01602080910402602001604051908101604052809291908181526020018280546101f190610b77565b801561023e5780601f106102135761010080835404028352916020019161023e565b820191906000526020600020905b81548152906001019060200180831161022157829003601f168201915b5050505050815260200160028201805461025790610b77565b80601f016020809104026020016040519081016040528092919081815260200182805461028390610b77565b80156102d05780601f106102a5576101008083540402835291602001916102d0565b820191906000526020600020905b8154815290600101906020018083116102b357829003601f168201915b505050505081526020016003820180546102e990610b77565b80601f016020809104026020016040519081016040528092919081815260200182805461031590610b77565b80156103625780601f1061033757610100808354040283529160200191610362565b820191906000526020600020905b81548152906001019060200180831161034557829003601f168201915b5050505050815260200160048201805461037b90610b77565b80601f01602080910402602001604051908101604052809291908181526020018280546103a790610b77565b80156103f45780601f106103c9576101008083540402835291602001916103f4565b820191906000526020600020905b8154815290600101906020018083116103d757829003601f168201915b5050505050815250508383815181106104105761040f610aa2565b5b6020026020010181905250818061042690610b00565b9250505b808061043590610b00565b915050610145565b50819350505050919050565b60006040518060a001604052808781526020018681526020018581526020018481526020018381525090806001815401808255809150506001900390600052602060002090600502016000909190919091506000820151816000015560208201518160010190805190602001906104c1929190610551565b5060408201518160020190805190602001906104de929190610551565b5060608201518160030190805190602001906104fb929190610551565b506080820151816004019080519060200190610518929190610551565b5050505050505050565b6040518060a0016040528060008152602001606081526020016060815260200160608152602001606081525090565b82805461055d90610b77565b90600052602060002090601f01602090048101928261057f57600085556105c6565b82601f1061059857805160ff19168380011785556105c6565b828001600101855582156105c6579182015b828111156105c55782518255916020019190600101906105aa565b5b5090506105d391906105d7565b5090565b5b808211156105f05760008160009055506001016105d8565b5090565b6000604051905090565b600080fd5b600080fd5b6000819050919050565b61061b81610608565b811461062657600080fd5b50565b60008135905061063881610612565b92915050565b600060208284031215610654576106536105fe565b5b600061066284828501610629565b91505092915050565b600081519050919050565b600082825260208201905092915050565b6000819050602082019050919050565b6106a081610608565b82525050565b600081519050919050565b600082825260208201905092915050565b60005b838110156106e05780820151818401526020810190506106c5565b838111156106ef576000848401525b50505050565b6000601f19601f8301169050919050565b6000610711826106a6565b61071b81856106b1565b935061072b8185602086016106c2565b610734816106f5565b840191505092915050565b600060a0830160008301516107576000860182610697565b506020830151848203602086015261076f8282610706565b915050604083015184820360408601526107898282610706565b915050606083015184820360608601526107a38282610706565b915050608083015184820360808601526107bd8282610706565b9150508091505092915050565b60006107d6838361073f565b905092915050565b6000602082019050919050565b60006107f68261066b565b6108008185610676565b93508360208202850161081285610687565b8060005b8581101561084e578484038952815161082f85826107ca565b945061083a836107de565b925060208a01995050600181019050610816565b50829750879550505050505092915050565b6000602082019050818103600083015261087a81846107eb565b905092915050565b600080fd5b600080fd5b7f4e487b7100000000000000000000000000000000000000000000000000000000600052604160045260246000fd5b6108c4826106f5565b810181811067ffffffffffffffff821117156108e3576108e261088c565b5b80604052505050565b60006108f66105f4565b905061090282826108bb565b919050565b600067ffffffffffffffff8211156109225761092161088c565b5b61092b826106f5565b9050602081019050919050565b82818337600083830152505050565b600061095a61095584610907565b6108ec565b90508281526020810184848401111561097657610975610887565b5b610981848285610938565b509392505050565b600082601f83011261099e5761099d610882565b5b81356109ae848260208601610947565b91505092915050565b600080600080600060a086880312156109d3576109d26105fe565b5b60006109e188828901610629565b955050602086013567ffffffffffffffff811115610a0257610a01610603565b5b610a0e88828901610989565b945050604086013567ffffffffffffffff811115610a2f57610a2e610603565b5b610a3b88828901610989565b935050606086013567ffffffffffffffff811115610a5c57610a5b610603565b5b610a6888828901610989565b925050608086013567ffffffffffffffff811115610a8957610a88610603565b5b610a9588828901610989565b9150509295509295909350565b7f4e487b7100000000000000000000000000000000000000000000000000000000600052603260045260246000fd5b7f4e487b7100000000000000000000000000000000000000000000000000000000600052601160045260246000fd5b6000610b0b82610608565b91507fffffffffffffffffffffffffffffffffffffffffffffffffffffffffffffffff8203610b3d57610b3c610ad1565b5b600182019050919050565b7f4e487b7100000000000000000000000000000000000000000000000000000000600052602260045260246000fd5b60006002820490506001821680610b8f57607f821691505b602082108103610ba257610ba1610b48565b5b5091905056fea264697066735822122097a0f2f4ae28eb1b4ba4944e86dbfc240488430447fca027678aaaeb94eafc9b64736f6c634300080d0033",
  "immutableReferences": {},
  "source": "// SPDX-License-Identifier: MIT\r\n\r\npragma solidity ^0.8.0;\r\n\r\ncontract LogTestContract {\r\n    // Defin struktru priek urnla ieraksta\r\n    struct Log {\r\n        uint256 eventId; // Notikuma ID\r\n        string message; // Ziojums\r\n        string timeCreated; // Izveidoanas laiks\r\n        string levelDisplayName; // Lmea nosaukums\r\n        string providerName; // Piegdtja nosaukums\r\n    }\r\n\r\n    // Privts masvs, kas satur visus urnla ierakstus\r\n    Log[] private logs;\r\n\r\n    // Funkcija, kas saglab urnla ierakstu\r\n    function saglabatZurnalu(\r\n        uint256 eventId, // Notikuma ID\r\n        string memory message, // Ziojums\r\n        string memory timeCreated, // Izveidoanas laiks\r\n        string memory levelDisplayName, // Lmea nosaukums\r\n        string memory providerName // Piegdtja nosaukums\r\n    ) public {\r\n        // Pievieno jaunu urnla ierakstu masvam\r\n        logs.push(Log(eventId, message, timeCreated, levelDisplayName, providerName));\r\n    }\r\n\r\n    // Funkcija, kas mekl urnla ierakstus pc notikuma ID\r\n    function mekletPecId(uint256 eventId) public view returns (Log[] memory) {\r\n        uint256 count = 0;\r\n        \r\n        // Skaita cik urnla ieraksti atbilst dotajam notikuma ID\r\n        for (uint256 i = 0; i < logs.length; i++) {\r\n            if (logs[i].eventId == eventId) {\r\n                count++;\r\n            }\r\n        }\r\n\r\n        // Izveido jaunu masvu rezulttu glabanai\r\n        Log[] memory result = new Log[](count);\r\n        uint256 index = 0;\r\n        \r\n        // Pievieno atbilstoos urnla ierakstus rezulttu masvam\r\n        for (uint256 i = 0; i < logs.length; i++) {\r\n            if (logs[i].eventId == eventId) {\r\n                result[index] = logs[i];\r\n                index++;\r\n            }\r\n        }\r\n\r\n        // Atgrie rezulttu masvu\r\n        return result;\r\n    }\r\n}\r\n",
  "sourcePath": "D:\\Projekts\\contracts\\LogTestContract.sol",
  "compiler": {
    "name": "solc",
    "version": "0.8.13+commit.abaa5c0e.Emscripten.clang"
  },
  "schemaVersion": "3.4.16",
  "updatedAt": "2024-05-27T09:00:59.825Z",
  "networkType": "ethereum",
  "devdoc": {
    "kind": "dev",
    "methods": {},
    "version": 1
  },
  "userdoc": {
    "kind": "user",
    "methods": {},
    "version": 1
  }
}